S0140000436F6E74726F6C5F556E69742E7372656330
S11300000C9434000C9451000C949D000C945100F9
S11300100C9451000C9451000C9451000C94510018
S11300200C9451000C9451000C9451000C94510008
S11300300C9451000C9451000C9451000C945100F8
S11300400C9451000C9451000C9451000C945100E8
S11300500C9451000C9451000C9451000C945100D8
S11300600C9451000C94510011241FBECFEFD8E022
S1130070DEBFCDBF14E0A0E0B1E0EEEDF9E102C0D7
S113008005900D92A630B107D9F714E0A6E0B4E0CC
S113009001C01D92A931B107E1F70E9453000C94ED
S11300A0ED0C0C9400000E948C000E946B070E94CF
S11300B0CB000E9443020E9456018FEF93EDA0E310
S11300C081509040A040E1F700C00000F2CF84E0EE
S11300D08AB908951092800081E080938100089588
S11300E0109281001092850010928400089584E09B
S11300F08093690082E08DBB089560EA73E00E94FA
S11301009D09862F972F089584E08BB985E38A95FE
S1130110F1F700001BB808950E9467000E94770061
S1130120789408950E9484000E94700080910904CC
S113013090910A040E947D0008951F920F920FB6B9
S11301400F9211242F933F934F935F936F937F9359
S11301508F939F93AF93BF93EF93FF930E946A0093
S11301604B99FECF809184009091850090930A046E
S113017080930904FF91EF91BF91AF919F918F916B
S11301807F916F915F914F913F912F910F900FBE8F
S11301900F901F9018958FE084B98EE190E00E9433
S11301A0A90186E990E00E94A30182E190E00E9407
S11301B09D0181E090E00E94910180E090E00E9426
S11301C09701089590910D0421E080910C049817F3
S11301D008F020E081E030910301391708F080E055
S11301E0822308950E94D8019093110480931004EF
S11301F00E94DE0180930B040E94E30180930C04AF
S11302000E94E200882309F043C020911204409127
S11302100B04421710F41092060430E050E04951E8
S1130220504081E090E02417350714F080E090E01E
S11302302091060430E02095309582239323009783
S113024019F081E0809306041092070420911004B1
S1130250309111042250304080910E0490910F048B
S11302608217930774F481E0809307048091060455
S113027080FF07C084E085B980E090E00E94970188
S1130280089581E085B981E090E00E949701089586
S113029095B182E0892785B908950E94E2008823F8
S11302A021F495B182E0892785B908950E94D3018C
S11302B08130910589F40E94D50790930F048093AF
S11302C00E040E94920080930D040E948701809383
S11302D012040E94F2000895009731F40E949200E3
S11302E080930D040E944D01089581E680937C0063
S11302F087E880937A000895EAE7F0E080818064DB
S11303008083808186FDFDCF8091790008950E94CD
S113031075010E947C01089581E090E00E94FC0B2D
S11303200895682F80E090E00E94040C0895682FDF
S113033081E090E00E94040C0895682F82E090E030
S11303400E94040C0895682F83E090E00E94040C3E
S11303500895682F84E090E00E94040C08950F93A0
S11303601F93CF938C01C0E008C0F801E80FF91F78
S1130370059660810E94040CCF5FE02FF12FDF010E
S11303800D900020E9F71197AE1BBF0B8C2F90E066
S11303908A179B0750F3059660E00E94040CCF91E6
S11303A01F910F91089580E090E00E94FC0B089546
S11303B082E090E00E94FC0B90E0089583E090E0DE
S11303C00E94FC0B089584E090E00E94FC0B0895C9
S11303D0FF920F931F93CF93DF93CDB7DEB764974C
S11303E00FB6F894DEBF0FBECDBFFF240F2D10E073
S11303F0C80105960E94FC0BE1E0F0E0EC0FFD1F44
S1130400E00FF11F8083F394FE01EF0DF11D808155
S1130410882361F7CE01019664960FB6F894DEBF87
S11304200FBECDBFDF91CF911F910F91FF90089523
S11304300E948C01813031F081E00E94970181E0BB
S113044090E0089580E090E008950E948C01882354
S113045031F080E00E94970181E090E0089580E00F
S113046090E00895E82FF92F05C090E0C0978A30F6
S1130470910530F481918823C1F781E090E00895DB
S113048080E090E00895AF92BF92CF92DF92EF9216
S1130490FF920F931F93CF93DF93CDB7DEB7C45B67
S11304A0D0400FB6F894DEBF0FBECDBFCE01C396C9
S11304B06EE170E00E949B072BA9203281F0222379
S11304C089F0DE011196FE01F49680E090E02D9310
S11304D001962191203241F02223C9F705C080E022
S11304E090E002C080E090E0FE01E80FF91F118265
S11304F0FE01E80FF91F44A9403299F04423A1F00A
S1130500FE017F968C0F9D1FDC01D59620E030E024
S113051041932F5F3F4F4D91403241F04423C1F747
S113052005C020E030E002C020E030E02C0F3D1F89
S1130530D9015F961C92CE01019664E071E00E949D
S1130540CF09282F392F2115310521F480E191E0BD
S11305500E948107CE0101966BE171E00E94CF09F0
S1130560282F392F21153105D9F50E94E8016C0196
S11305700E94D301F82E0E948C01E82E0E94D8011B
S11305805C010E94E301EDB7FEB73E970FB6F89405
S1130590FEBF0FBEEDBF31968E010F5A1F4FADB790
S11305A0BEB712961C930E93119728E231E0338361
S11305B02283D582C482F6821782E0861186B386AE
S11305C0A286848715860E94FC09EDB7FEB73E9685
S11305D00FB6F894FEBF0FBEEDBFC8010E9481079D
S11305E0CE01019667E371E00E94CF09282F392FCD
S11305F02115310559F50E94E801009719F100D041
S113060000D000D0EDB7FEB731968E010F5A1F4FC0
S1130610ADB7BEB712961C930E93119728E431E040
S113062033832283958384830E94FC09EDB7FEB74C
S113063036960FB6F894FEBF0FBEEDBFC8010E94F8
S1130640810704C08EE491E00E948107CE010196E7
S113065069E671E00E94CF09282F392F2115310551
S113066009F049C00E948C01813019F500D000D0F6
S113067000D0EDB7FEB731968E010F5A1F4FADB7BC
S1130680BEB712961C930E93119723E731E0338380
S11306902283848315820E94FC09EDB7FEB7369647
S11306A00FB6F894FEBF0FBEEDBFC8010E948107CC
S11306B022C000D000D000D0EDB7FEB731968E0135
S11306C00F5A1F4FADB7BEB712961C930E931197D6
S11306D029E731E033832283848315820E94FC0955
S11306E0EDB7FEB736960FB6F894FEBF0FBEEDBF5A
S11306F0C8010E948107CE01019660EA71E00E9460
S1130700CF09282F392F2115310509F04BC00E943C
S1130710D301882311F0813019F500D000D000D026
S1130720EDB7FEB731968E010F5A1F4FADB7BEB766
S113073012961C930E93119723E731E0338322839F
S1130740848315820E94FC09EDB7FEB736960FB676
S1130750F894FEBF0FBEEDBFC8010E94810722C0FE
S113076000D000D000D0EDB7FEB731968E010F5AFD
S11307701F4FADB7BEB712961C930E93119729EA7B
S113078031E033832283848315820E94FC09EDB710
S1130790FEB736960FB6F894FEBF0FBEEDBFC80184
S11307A00E948107CE01019669EC71E00E94CF0995
S11307B0282F392F21153105B1F50E94D801009752
S11307C019F100D000D000D0EDB7FEB731968E01FC
S11307D00F5A1F4FADB7BEB712961C930E931197C5
S11307E023E731E033832283958384830E94FC09C9
S11307F0EDB7FEB736960FB6F894FEBF0FBEEDBF49
S1130800C8010E9481070FC0DE01AF5ABF4FE6ED59
S1130810F1E080E201900D928150E1F7CE018F5A10
S11308209F4F0E948107CE01019666EF71E00E94FE
S1130830CF09282F392F21153105B9F50E94E3017D
S113084090E0009719F100D000D000D0EDB7FEB7CA
S113085031968E010F5A1F4FADB7BEB712961C9337
S11308600E93119723E731E03383228395838483A6
S11308700E94FC09EDB7FEB736960FB6F894FEBF9A
S11308800FBEEDBFC8010E9481070FC0DE01AF5A41
S1130890BF4FE3E0F2E080E201900D928150E1F776
S11308A0CE018F5A9F4F0E948107CE01019663E2C9
S11308B072E00E94CF09282F392F2115310509F044
S11308C052C00E94D507009751F10E94D507833387
S11308D091052CF50E94D50700D000D000D0EDB7CB
S11308E0FEB731968E010F5A1F4FADB7BEB71296A1
S11308F01C930E93119723E731E03383228395836E
S113090084830E94FC09EDB7FEB736960FB6F894BF
S1130910FEBF0FBEEDBFC8010E94810724C00E9424
S1130920D50700D000D000D0EDB7FEB731968E01C8
S11309300F5A1F4FADB7BEB712961C930E93119763
S113094023E332E033832283958384830E94FC096A
S1130950EDB7FEB736960FB6F894FEBF0FBEEDBFE7
S1130960C8010E948107CE0101966BE672E00E94E5
S1130970CF09282F392F2115310509F053C00E94C2
S11309808701009759F10E9487018F3F910509F073
S11309902CF50E94870100D000D000D0EDB7FEB73F
S11309A031968E010F5A1F4FADB7BEB712961C93E6
S11309B00E93119723E731E0338322839583848355
S11309C00E94FC09EDB7FEB736960FB6F894FEBF49
S11309D00FBEEDBFC8010E94810724C00E94870199
S11309E000D000D000D0EDB7FEB731968E010F5A7B
S11309F01F4FADB7BEB712961C930E9311972CE7F9
S1130A0032E033832283958384830E94FC09EDB70B
S1130A10FEB736960FB6F894FEBF0FBEEDBFC80101
S1130A200E948107CE01019664EB72E00E94CF0917
S1130A30282F392F2115310509F05BC08F8D8823AC
S1130A40A1F1DE015F96FD0101900020E9F73197E5
S1130A50EA1BFB0BE531F10540F5CD010E94AF0126
S1130A600E94E80100D000D000D0EDB7FEB7319667
S1130A708E010F5A1F4FADB7BEB712961C930E933B
S1130A80119728E431E033832283958384830E9481
S1130A90FC09EDB7FEB736960FB6F894FEBF0FBE4D
S1130AA0EDBFC8010E94810724C000D000D000D04F
S1130AB0EDB7FEB731968E010F5A1F4FADB7BEB7D3
S1130AC012961C930E9311978DEB92E0938382837D
S1130AD0CE014F96958384830E94FC09EDB7FEB73F
S1130AE036960FB6F894FEBF0FBEEDBFC8010E9444
S1130AF08107CE01019667EE72E00E94CF09282F8C
S1130B00392F2115310509F05AC0CE014F960E94A4
S1130B1032028130910579F5CE014F960E94B109D8
S1130B208333910544F590E00E949D010E94D80111
S1130B3000D000D000D0EDB7FEB731968E010F5A29
S1130B401F4FADB7BEB712961C930E93119723E7B0
S1130B5031E033832283958384830E94FC09EDB7BB
S1130B60FEB736960FB6F894FEBF0FBEEDBFC801B0
S1130B700E94810724C000D000D000D0EDB7FEB79A
S1130B8031968E010F5A1F4FADB7BEB712961C9304
S1130B900E93119784EF92E093838283CE014F9654
S1130BA0958384830E94FC09EDB7FEB736960FB691
S1130BB0F894FEBF0FBEEDBFC8010E948107CE01AD
S1130BC0019660E173E00E94CF09282F392F211587
S1130BD0310509F05CC0CE014F960E94320281308B
S1130BE0910589F5CE014F960E94B1098330910594
S1130BF054F18F3191053CF50E94A9010E94E30153
S1130C0000D000D000D0EDB7FEB731968E010F5A58
S1130C101F4FADB7BEB712961C930E93119723E7DF
S1130C2031E033832283848315820E94FC09EDB76B
S1130C30FEB736960FB6F894FEBF0FBEEDBFC801DF
S1130C400E94810724C000D000D000D0EDB7FEB7C9
S1130C5031968E010F5A1F4FADB7BEB712961C9333
S1130C600E9311978DE193E093838283CE014F9687
S1130C70958384830E94FC09EDB7FEB736960FB6C0
S1130C80F894FEBF0FBEEDBFC8010E948107CE01DC
S1130C90019669E373E00E94CF09282F392F2115AB
S1130CA0310509F06EC0CE014F9663E473E00E94F3
S1130CB0CF09282F392F2115310561F50E948C01A8
S1130CC08130A9F00E9418028130910581F4DE017F
S1130CD0AF5ABF4FE8E4F3E08BE001900D928150EE
S1130CE0E1F7CE018F5A9F4F0E94810713C00E94E3
S1130CF01802009779F4DE01AF5ABF4FE3E5F3E041
S1130D0081E201900D928150E1F7CE018F5A9F4FFD
S1130D100E948107CE014F9664E773E00E94CF09D9
S1130D20282F392F2115310561F50E948C01882364
S1130D30A9F00E9425028130910581F4DE01AF5AA9
S1130D40BF4FEBE7F3E08BE001900D928150E1F7A8
S1130D50CE018F5A9F4F0E94810713C00E94250223
S1130D60009779F4DE01AF5ABF4FE6E8F3E082E280
S1130D7001900D928150E1F7CE018F5A9F4F0E944E
S1130D808107CE01019668EA73E00E94CF09282FFB
S1130D90392F2115310509F08CC0CE014F9661EB36
S1130DA073E00E94CF09282F392F21153105D9F579
S1130DB00E94D301882399F080E00E949101DE0112
S1130DC0AF5ABF4FE8EBF3E08FE001900D928150F2
S1130DD0E1F7CE018F5A9F4F0E94810724C000D0B3
S1130DE000D000D0EDB7FEB731968E010F5A1F4FD9
S1130DF0ADB7BEB712961C930E93119787EC93E090
S1130E0093838283CE014F96958384830E94FC0949
S1130E10EDB7FEB736960FB6F894FEBF0FBEEDBF22
S1130E20C8010E948107CE014F9669EE73E00E94CB
S1130E30CF09282F392F21153105D9F50E94D30167
S1130E40813099F081E00E949101DE01AF5ABF4FD9
S1130E50EEEEF3E08DE001900D928150E1F7CE01CA
S1130E608F5A9F4F0E94810724C000D000D000D029
S1130E70EDB7FEB731968E010F5A1F4FADB7BEB70F
S1130E8012961C930E93119787EC93E093838283BD
S1130E90CE014F96958384830E94FC09EDB7FEB77B
S1130EA036960FB6F894FEBF0FBEEDBFC8010E9480
S1130EB08107CC54DF4F0FB6F894DEBF0FBECDBF11
S1130EC0DF91CF911F910F91FF90EF90DF90CF9022
S1130ED0BF90AF9008951092C50087E68093C40038
S1130EE01092C00088E18093C10086E08093C20024
S1130EF00895E0ECF0E0908195FFFDCF8093C6006B
S1130F000895CF93DF93EC018881882331F02196F3
S1130F100E94790789918823D9F780E00E94790794
S1130F20DF91CF910895E0ECF0E080818823ECF725
S1130F308091C6000895CF92DF92EF92FF920F93B3
S1130F401F93CF93DF936C017C0100E010E0EB0171
S1130F5021970E9493078D3049F00C171D07CCF799
S1130F60F70181937F010F5F1F4FF3CF0C0D1D1D00
S1130F70F8011082DF91CF911F910F91FF90EF90B4
S1130F80DF90CF90089580E680937C0087E880937B
S1130F907A000895EAE7F0E08081806480838081AC
S1130FA086FDFDCF809179000895CF930E94C307F9
S1130FB00E94CA07682F70E080E090E00E94AE08AB
S1130FC020E030E040E85BE30E943A0921EE3AE792
S1130FD040EA50E40E943A0920E030E040E05FE358
S1130FE00E94160820E030E048EC52E40E943A09DE
S1130FF00E947B08C62F00D000D08BEF93E0EDB7A2
S1131000FEB7928381838C2F992787FD90959483D3
S113101083830E94E0090F900F900F900F908AE055
S113102090E00E94F5098C2FCF9108955058BB276A
S1131030AA270ED0E5C0D6D030F0DBD020F031F4B2
S11310409F3F11F41EF4CBC00EF4E095E7FBC1C042
S1131050E92FE7D080F3BA1762077307840795076F
S113106018F071F49EF5FFC00EF4E0950B2EBA2F24
S1131070A02D0B01B90190010C01CA01A00111249A
S1131080FF27591B99F0593F50F4503E68F11A1646
S1131090F040A22F232F342F4427585FF3CF4695D7
S11310A037952795A795F0405395C9F77EF41F16F9
S11310B0BA0B620B730B840BBAF09150A1F0FF0FC3
S11310C0BB1F661F771F881FC2F70EC0BA0F621FAF
S11310D0731F841F48F4879577956795B795F7959F
S11310E09E3F08F0B3CF9395880F08F09927EE0F31
S11310F097958795089504D06894B111B5C0089563
S113110098D088F09F5790F0B92F9927B751A0F045
S1131110D1F0660F771F881F991F1AF0BA95C9F787
S113112012C0B13081F09FD0B1E008959CC0672F08
S1131130782F8827B85F39F0B93FCCF38695779537
S11311406795B395D9F73EF4909580957095619520
S11311507F4F8F4F9F4F0895E89409C097FB3EF44B
S113116090958095709561957F4F8F4F9F4F9923F0
S1131170A9F0F92F96E9BB279395F695879577956E
S11311806795B795F111F8CFFAF4BB0F11F460FF2E
S11311901BC06F5F7F4F8F4F9F4F16C0882311F086
S11311A096E911C0772321F09EE8872F762F05C09A
S11311B0662371F096E8862F70E060E02AF09A9535
S11311C0660F771F881FDAF7880F9695879597F92A
S11311D0089597F99F6780E870E060E008959FEFB5
S11311E080EC089500240A941616170618060906BA
S11311F0089500240A941216130614060506089589
S1131200092E0394000C11F4882352F0BB0F40F410
S1131210BF2B11F460FF04C06F5F7F4F8F4F9F4F50
S1131220089557FD9058440F551F59F05F3F71F0D2
S11312304795880F97FB991F61F09F3F79F0879539
S11312400895121613061406551FF2CF4695F1DFC2
S113125008C0161617061806991FF1CF8695710552
S1131260610508940895E894BB2766277727CB0186
S113127097F908950BD0C4CFB5DF28F0BADF18F082
S1131280952309F0A6CFABCF1124EECFCADFA0F38C
S1131290959FD1F3950F50E0551F629FF001729F07
S11312A0BB27F00DB11D639FAA27F00DB11DAA1F26
S11312B0649F6627B00DA11D661F829F2227B00D73
S11312C0A11D621F739FB00DA11D621F839FA00DFE
S11312D0611D221F749F3327A00D611D231F849F4E
S11312E0600D211D822F762F6A2F11249F575040A5
S11312F08AF0E1F088234AF0EE0FFF1FBB1F661F40
S1131300771F881F91505040A9F79E3F510570F0F8
S113131060CFAACF5F3FECF3983EDCF386957795D8
S11313206795B795F795E7959F5FC1F7FE2B880FF3
S1131330911D9695879597F90895AA1BBB1B51E1BA
S113134007C0AA1FBB1FA617B70710F0A61BB70B31
S1131350881F991F5A95A9F780959095BC01CD01D6
S11313600895FC0188279927E89421912032E9F314
S1131370293010F02E30C8F32B3241F02D3239F4DD
S1131380689404C00E94D809820F911D21912053B2
S11313902A30C0F31EF4909581959F4F0895FB0168
S11313A0DC018D91019080190110D9F3990B0895F6
S11313B07AE0979F902D879F802D910D1124089599
S11313C0A0E0B0E0E6EEF9E00C94C60CFE01359620
S11313D0619171918091150490911604AF010E945E
S11313E01E0A2096E2E00C94E20C609115047091C0
S11313F016040E942C0C0895AEE0B0E0E2E0FAE09E
S11314000C94C40C0D891E8986E08C831A8309838D
S11314108FEF9FE79E838D83AE01475E5F4FCE01C2
S113142001966F89788D0E941E0AEF81F885E00F7E
S1131430F11F10822E96E4E00C94E00CADE0B0E0D5
S1131440E4E2FAE00C94B60C3C017D876C875A0107
S1131450FC0117821682838181FFC8C12E01089482
S1131460411C511CF3019381EC85FD8593FD85910D
S113147093FF8191FD87EC87882309F4B3C18532FA
S113148041F493FD859193FF8191FD87EC8785322B
S113149029F490E0B3010E942C0CE4CFFF24EE2445
S11314A010E01032B0F48B3269F08C3228F48032C0
S11314B051F0833271F40BC08D3239F0803349F42A
S11314C011602CC01260146029C0186027C010611C
S11314D025C017FD2EC0282F20532A3098F416FF5C
S11314E008C08F2D880FF82EFF0CFF0CF80EF20E9B
S11314F015C08E2D880FE82EEE0CEE0CE80EE20ED1
S113150010620CC08E3221F416FD6CC1106406C04A
S11315108C3611F4106802C0883659F4EC85FD85C8
S113152093FD859193FF8191FD87EC87882309F0D2
S1131530B8CF982F9554933018F09052933038F4D4
S113154024E030E0A20EB31E3FE339830FC083369C
S113155031F0833781F0833509F05AC022C0F50198
S11315608081898322E030E0A20EB31E21E0C22EE6
S1131570D12C420114C092E0292E312C2A0C3B1CA0
S1131580F5018080918016FF03C06F2D70E002C0CA
S11315906FEF7FEFC4010E94210C6C0151011F7792
S11315A015C082E0282E312C2A0C3B1CF5018080CA
S11315B0918016FF03C06F2D70E002C06FEF7FEFC4
S11315C0C4010E94160C6C011068510113FD1CC06B
S11315D006C080E290E0B3010E942C0CEA948E2DA8
S11315E090E0C816D906A8F30FC0F40117FD859141
S11315F017FF81914F0190E0B3010E942C0CE11080
S1131600EA940894C108D108C114D10471F7E7C061
S1131610843611F0893651F5F50117FF07C0808132
S11316209181A281B38124E030E008C0808191815E
S1131630AA2797FDA095BA2F22E030E0A20EB31E90
S1131640012F0F76B7FF08C0B095A09590958195AE
S11316509F4FAF4FBF4F0068BC01CD01A2012AE0EC
S113166030E00E94580CD82ED4183FC0853721F49E
S11316701F7E2AE030E020C0197F8F36A9F0803722
S113168020F4883509F0AEC00BC0803721F08837CC
S113169009F0A8C001C0106114FF09C0146007C09C
S11316A014FF08C0166006C028E030E005C020E141
S11316B030E002C020E132E0F50117FF07C060818D
S11316C071818281938144E050E006C06081718120
S11316D080E090E042E050E0A40EB51EA2010E941A
S11316E0580CD82ED418012F0F7706FF09C00E7F8F
S11316F0DF1430F404FF06C002FD04C00F7E02C0F4
S11317001D2D01C01F2D802F90E004FF0CC0FE0191
S1131710ED0DF11D2081203311F4097E09C002FF73
S113172006C01E5F05C086789070009709F01F5FA1
S1131730802E992403FD12C000FF0DC0FD2C1E1540
S113174050F4FE0CF11A1E2D06C080E290E0B301A5
S11317500E942C0C1F5F1E15C0F304C01E1510F44C
S1131760E11A01C0EE2484FE0FC080E390E0B301CF
S11317700E942C0C82FE1FC081FE03C088E590E00D
S113178010C088E790E00DC0C4018678907000977F
S113179091F081FC02C080E201C08BE207FD8DE282
S11317A090E0B3010E942C0C06C080E390E0B301EA
S11317B00E942C0CFA94DF14C0F3DA94F201ED0DBC
S11317C0F11D808190E0B3010E942C0CDD20A9F76B
S11317D006C080E290E0B3010E942C0CEA94EE2053
S11317E0C1F740CEF3018681978102C08FEF9FEF4E
S11317F02D96E2E10C94D20CF999FECF92BD81BDF5
S1131800F89A992780B50895262FF999FECF92BDAD
S113181081BDF89A019700B4021639F01FBA20BDB1
S11318200FB6F894FA9AF99A0FBE0895FC01059040
S1131830615070400110D8F7809590958E0F9F1FCE
S11318400895FC016150704001900110D8F7809513
S113185090958E0F9F1F08950F931F93CF93DF933F
S11318608C01EB018B8181FF1BC082FF0DC02E8197
S11318703F818C819D812817390764F4E881F981BF
S11318800193F983E88306C0E885F985802F0995DB
S1131890009731F48E819F8101969F838E8302C0CD
S11318A00FEF1FEFC801DF91CF911F910F910895A2
S11318B0FA01AA27283051F1203181F1E8946F937D
S11318C06E7F6E5F7F4F8F4F9F4FAF4FB1E03ED023
S11318D0B4E03CD0670F781F891F9A1FA11D680FC1
S11318E0791F8A1F911DA11D6A0F711D811D911DF4
S11318F0A11D20D009F468943F912AE0269F112469
S11319003019305D3193DEF6CF010895462F4770CC
S1131910405D4193B3E00FD0C9F7F6CF462F4F7027
S1131920405D4A3318F0495D31FD4052419302D085
S1131930A9F7EACFB4E0A69597958795779567952B
S1131940BA95C9F700976105710508959B01AC012B
S11319500A2E06945795479537952795BA95C9F752
S1131960620F731F841F951FA01D08952F923F922D
S11319704F925F926F927F928F929F92AF92BF929B
S1131980CF92DF92EF92FF920F931F93CF93DF9347
S1131990CDB7DEB7CA1BDB0B0FB6F894DEBF0FBEA4
S11319A0CDBF09942A88398848885F846E847D84F1
S11319B08C849B84AA84B984C884DF80EE80FD80F3
S11319C00C811B81AA81B981CE0FD11D0FB6F89469
S11119D0DEBF0FBECDBFED010895F894FFCF2A
S11319DE0201000257484F5F4152455F594F55006F
S11319EE4920414D2047524F4F54004745545F53B1
S11319FE455454494E4753002573202569202569C3
S1131A0E202569202569006765745F6164727569B4
S1131A1E6E6F5F6E616D65004F4B202573004552EE
S1131A2E524F52203630313A204E616D6520697323
S1131A3E206E6F7420736574004745545F53544190
S1131A4E5445004F4B202569004552524F522036C3
S1131A5E30313A20556E7265636F676E697A6564CC
S1131A6E2073637265656E737461746520256900F5
S1131A7E4745545F4D4F4445004552524F52203610
S1131A8E30313A20556E7265636F676E697A65649C
S1131A9E206D6F6465202569004745545F54485393
S1131AAE5F54454D50004552524F52203434323A11
S1131ABE20436F756C64206E6F74207265616420B0
S1131ACE76616C7565004745545F5448535F4449CD
S1131ADE5354004552524F52203434343A20436FFB
S1131AEE756C64206E6F7420726561642076616C0F
S1131AFE7565004745545F53454E534F525F5445E9
S1131B0E4D50004552524F52203434323A20556EC5
S1131B1E7265616C69737469632076616C75652096
S1131B2E25692E2053656E736F72206D6967687414
S1131B3E20626520646566656374004745545F538F
S1131B4E454E534F525F4C49474854004552524FED
S1131B5E52203434333A20556E7265616C69737455
S1131B6E69632076616C75652025692E2053656E38
S1131B7E736F72206D696768742062652064656690
S1131B8E656374005345545F4E414D4500455252B2
S1131B9E4F52203630353A2056616C7565202573C8
S1131BAE206E6F742077697468696E206C696D6934
S1131BBE7420302D3230005345545F5448535F54D3
S1131BCE454D50004552524F52203130363A20493D
S1131BDE6E76616C69642076616C75652025730080
S1131BEE5345545F5448535F44495354004552522D
S1131BFE4F52203130373A20496E76616C69642039
S1131C0E76616C7565202573005345545F535441BA
S1131C1E5445004F50454E004F4B204F50454E49B2
S1131C2E4E47004552524F52203130353A20436FC1
S1131C3E756C64206E6F74206F70656E20736372A2
S1131C4E65656E00434C4F534544004F4B20434C47
S1131C5E4F53494E47004552524F52203130353A78
S1131C6E20436F756C64206E6F7420636C6F7365A4
S1131C7E2073637265656E005345545F4D4F444542
S1131C8E004D414E55414C004F4B204D4F44452085
S1131C9E4D414E55414C004552524F522034343131
S1131CAE3A20436F756C64206E6F742073657420D4
S1131CBE6D6F647573202573004155544F004F4B5F
S1131CCE204D4F4445204155544F0054656D7020AE
S1091CDE3D202569000011
S9030000FC
