:100000000C9434000C9451000C949F010C945100FA
:100010000C9451000C9451000C9451000C9451001C
:100020000C9451000C9451000C9451000C9451000C
:100030000C9451000C9451000C9451000C945100FC
:100040000C9451000C9451000C9451000C945100EC
:100050000C9451000C9451000C9451000C945100DC
:100060000C9451000C94510011241FBECFEFD8E026
:10007000DEBFCDBF11E0A0E0B1E0ECEFF2E102C0E5
:1000800005900D92AA33B107D9F711E0AAE3B1E0C8
:1000900001C01D92A334B107E1F70E9494020C94B1
:1000A0007C090C940000CF93DF93CDB7DEB784E2D8
:1000B00090E02FEFFC0120838AE290E024E0FC0135
:1000C0002083DF91CF910895CF93DF93CDB7DEB733
:1000D00080E890E0FC01108281E890E021E0FC01E2
:1000E0002083DF91CF910895CF93DF93CDB7DEB713
:1000F00081E890E0FC01108284E890E0FC0111822C
:100100001082DF91CF910895CF93DF93CDB7DEB703
:1001100089E690E024E0FC0120838DE390E022E07A
:10012000FC012083DF91CF910895CF93DF9300D01E
:10013000CDB7DEB79A83898389819A8120EA33E03B
:10014000B9010E9470069B01C9010F900F90DF91C9
:10015000CF9108950F931F93CF93DF93CDB7DEB761
:1001600068970FB6F894DEBF0FBECDBF8BE290E06C
:1001700024E0FC01208380E090E0A0E2B1E48983E8
:100180009A83AB83BC8369817A818B819C812BEAC2
:100190003AEA4AEA50E40E940D06DC01CB018D8365
:1001A0009E83AF83B88711E06D817E818F819885B2
:1001B00020E030E040E85FE30E94BA0488230CF0BE
:1001C00010E0112319F081E08987A3C011E06D814F
:1001D0007E818F81988520E030E04FE753E40E94D4
:1001E000090618160CF010E0112309F489C0698182
:1001F0007A818B819C8120E030E04AE754E40E94C0
:10020000BE04DC01CB018A879B87AC87BD876A85EA
:100210007B858C859D8520E030E04AE755E40E948F
:100220000D06DC01CB018E879F87A88BB98B11E06F
:100230006E857F858889998920E030E040E85FE31A
:100240000E94BA0488230CF010E0112329F081E009
:1002500090E09B8B8A8B46C011E06E857F858889F4
:10026000998920E03FEF4FE757E40E9409061816EE
:100270000CF010E0112361F16A857B858C859D85EA
:1002800020E030E040E251E40E940D06DC01CB01A9
:10029000BC01CD010E942B05DC01CB019B8B8A8B1D
:1002A00012C080E991E09D8B8C8B8C899D898C019B
:1002B000C8010197F1F78C011D8B0C8B8A899B89F2
:1002C00001979B8B8A8B8A899B89009751F728C05D
:1002D0006E857F85888999890E942B05DC01CB0179
:1002E0009B8B8A8B8A899B899F8B8E8B8E899F891A
:1002F0008C01F8013197F1F78F011F8B0E8B10C025
:100300006D817E818F8198850E942B05DC01CB0158
:1003100089878985888F888D182F1A95F1F7188F0E
:100320008BE290E0FC01108268960FB6F894DEBF75
:100330000FBECDBFDF91CF911F910F9108951F92F6
:100340000F920FB60F9211242F933F934F935F9309
:100350006F937F938F939F93AF93BF93EF93FF938D
:10036000CF93DF93CDB7DEB70E946400000089E22F
:1003700090E0FC018081882F90E088709070009759
:10038000B1F784E890E0FC018081918190933C0179
:1003900080933B01DF91CF91FF91EF91BF91AF919E
:1003A0009F918F917F916F915F914F913F912F918D
:1003B0000F900FBE0F901F901895CF93DF9300D032
:1003C0000F92CDB7DEB789837B836A8389818A30B8
:1003D00019F48DE00E94190289810E9419020F9080
:1003E0000F900F90DF91CF910895CF93DF93CDB70A
:1003F000DEB785EC90E0FC01108284EC90E027E60B
:10040000FC01208380EC90E0FC01108281EC90E004
:1004100028E1FC01208382EC90E026E0FC012083AF
:1004200083E091E09093400180933F01DF91CF9171
:100430000895CF93DF930F92CDB7DEB7898380EC19
:1004400090E0FC018081882F90E08072907000978E
:10045000B1F386EC90E02981FC0120830F90DF91BD
:10046000CF910895CF93DF93CDB7DEB780EC90E0C6
:10047000FC0180818823D4F786EC90E0FC01808128
:10048000DF91CF910895CF93DF93CDB7DEB7289753
:100490000FB6F894DEBF0FBECDBF9D838C837F83E4
:1004A0006E8348871A82198201C000000E943202BE
:1004B0008B838885882319F08B810E9419028B8198
:1004C0008D3039F488858823E9F08AE00E9419028A
:1004D00019C08E819F819C012150304089819A8171
:1004E0008217930714F789819A812C813D81820FAD
:1004F000931F2B81FC01208389819A8101969A8325
:100500008983D3CF000089819A812C813D81820F1C
:10051000931FFC01108228960FB6F894DEBF0FBE21
:10052000CDBFDF91CF9108950F931F93CF93DF93AA
:10053000CDB7DEB72F970FB6F894DEBF0FBECDBF95
:100540000E9453000E94840078940E94F5010E944A
:10055000DC030E94AA000E94740080913B019091EC
:100560003C010E94950089838981282F30E000D0CA
:1005700000D08DB79EB7019641E151E0FC01518357
:100580004083FC01338322830E9484060F900F90E6
:100590000F900F908FE191E00E9499060E948103D5
:1005A00080E090E0AAE7B4E48A839B83AC83BD83B8
:1005B0006A817B818C819D8120E030E04AE755E4AF
:1005C0000E940D06DC01CB018E839F83A887B9872B
:1005D00011E06E817F818885998520E030E040E8D8
:1005E0005FE30E94BA0488230CF010E0112329F085
:1005F00081E090E09B878A8746C011E06E817F8111
:100600008885998520E03FEF4FE757E40E9409066F
:1006100018160CF010E0112361F16A817B818C8146
:100620009D8120E030E040E251E40E940D06DC01B3
:10063000CB01BC01CD010E942B05DC01CB019B87C6
:100640008A8712C080E991E09D878C878C859D8583
:100650008C01C8010197F1F78C011D870C878A85F1
:100660009B8501979B878A878A859B85009751F791
:1006700018C06E817F81888599850E942B05DC01D9
:10068000CB019B878A878A859B859F878E878E85EE
:100690009F858C01F8013197F1F78F011F870E8735
:1006A00056CF55CFCF93DF93CDB7DEB78CE790E031
:1006B00021E6FC0120838AE790E027E8FC01208303
:1006C000DF91CF910895CF93DF93CDB7DEB78AE75F
:1006D00090E02AE730E0F90120812064FC012083CA
:1006E0008AE790E0FC018081882F90E08074907010
:1006F0000097B1F789E790E0FC018081DF91CF910D
:100700000895CF93DF9300D0CDB7DEB70E94520398
:100710000E946303882F90E09A83898300D000D0E1
:100720008DB79EB7019621E231E0FC013183208331
:1007300029813A81FC01338322830E9484060F9031
:100740000F900F900F908CE291E00E9499068981A2
:100750000F900F90DF91CF910895CF93DF93CDB796
:10076000DEB78CE790E020E6FC0120838AE790E08A
:1007700027E8FC012083DF91CF910895CF93DF9389
:10078000CDB7DEB78AE790E02AE730E0F9012081B3
:100790002064FC0120838AE790E0FC018081882F9F
:1007A00090E0807490700097B1F789E790E0FC01C9
:1007B0008081DF91CF910895CF93DF93CDB7DEB7DE
:1007C00027970FB6F894DEBF0FBECDBF0E94AD03D2
:1007D0000E94BE03882F90E09A83898389819A8141
:1007E000AA2797FDA095BA2FBC01CD010E945905FB
:1007F000DC01CB01BC01CD0120E030E040E853E456
:100800000E94BE04DC01CB01BC01CD0121EE3AE720
:1008100040EA50E40E940D06DC01CB018B839C83EF
:10082000AD83BE836B817C818D819E8120E030E031
:1008300040E05FE30E945504DC01CB01BC01CD0127
:1008400020E030E048EC52E40E940D06DC01CB01D0
:10085000BC01CD010E942605DC01CB018F838F8175
:10086000282F332727FD309500D000D08DB79EB7B5
:1008700001964EE251E0FC0151834083FC01338339
:1008800022830E9484060F900F900F900F9088E3B0
:1008900091E00E9499068F8127960FB6F894DEBFEB
:1008A0000FBECDBFDF91CF9108955058BB27AA2727
:1008B0000ED075C166D130F06BD120F031F49F3F7E
:1008C00011F41EF45BC10EF4E095E7FB51C1E92F72
:1008D00077D180F3BA17620773078407950718F07A
:1008E00071F49EF58FC10EF4E0950B2EBA2FA02D5A
:1008F0000B01B90190010C01CA01A0011124FF27CD
:10090000591B99F0593F50F4503E68F11A16F040C7
:10091000A22F232F342F4427585FF3CF46953795C6
:100920002795A795F0405395C9F77EF41F16BA0B8B
:10093000620B730B840BBAF09150A1F0FF0FBB1F39
:10094000661F771F881FC2F70EC0BA0F621F731F82
:10095000841F48F4879577956795B795F7959E3FDF
:1009600008F0B3CF9395880F08F09927EE0F97956D
:1009700087950895D9D008F481E008950CD00FC16F
:1009800007D140F0FED030F021F45F3F19F0F0C005
:10099000511139C1F3C014D198F39923C9F35523E8
:1009A000B1F3951B550BBB27AA2762177307840762
:1009B00038F09F5F5F4F220F331F441FAA1FA9F318
:1009C00033D00E2E3AF0E0E830D091505040E6950A
:1009D000001CCAF729D0FE2F27D0660F771F881F6B
:1009E000BB1F261737074807AB07B0E809F0BB0B5A
:1009F000802DBF01FF2793585F4F2AF09E3F51057E
:100A000068F0B6C000C15F3FECF3983EDCF386951A
:100A100077956795B795F7959F5FC9F7880F911DF3
:100A20009695879597F90895E1E0660F771F881FDF
:100A3000BB1F621773078407BA0720F0621B730B92
:100A4000840BBA0BEE1F88F7E095089504D06894E4
:100A5000B111D9C00895BCD088F09F5790F0B92F3C
:100A60009927B751A0F0D1F0660F771F881F991F03
:100A70001AF0BA95C9F712C0B13081F0C3D0B1E015
:100A80000895C0C0672F782F8827B85F39F0B93F25
:100A9000CCF3869577956795B395D9F73EF4909505
:100AA0008095709561957F4F8F4F9F4F0895E89483
:100AB00009C097FB3EF490958095709561957F4FA6
:100AC0008F4F9F4F9923A9F0F92F96E9BB27939554
:100AD000F695879577956795B795F111F8CFFAF464
:100AE000BB0F11F460FF1BC06F5F7F4F8F4F9F4F95
:100AF00016C0882311F096E911C0772321F09EE8F3
:100B0000872F762F05C0662371F096E8862F70E058
:100B100060E02AF09A95660F771F881FDAF7880F32
:100B20009695879597F90895990F0008550FAA0B88
:100B3000E0E8FEEF16161706E807F907C0F01216F0
:100B40001306E407F50798F0621B730B840B950BF3
:100B500039F40A2661F0232B242B252B21F4089548
:100B60000A2609F4A140A6958FEF811D811D0895E5
:100B700097F99F6780E870E060E008959FEF80EC50
:100B8000089500240A9416161706180609060895F3
:100B900000240A9412161306140605060895092E59
:100BA0000394000C11F4882352F0BB0F40F4BF2BC8
:100BB00011F460FF04C06F5F7F4F8F4F9F4F089508
:100BC00057FD9058440F551F59F05F3F71F04795FE
:100BD000880F97FB991F61F09F3F79F087950895E3
:100BE000121613061406551FF2CF4695F1DF08C002
:100BF000161617061806991FF1CF8695710561051F
:100C000008940895E894BB2766277727CB0197F9C6
:100C100008958ADF08F48FEF08950BD0C0CFB1DFBD
:100C200028F0B6DF18F0952309F0A2CFA7CF112442
:100C3000EACFC6DFA0F3959FD1F3950F50E0551F83
:100C4000629FF001729FBB27F00DB11D639FAA2721
:100C5000F00DB11DAA1F649F6627B00DA11D661F70
:100C6000829F2227B00DA11D621F739FB00DA11D91
:100C7000621F839FA00D611D221F749F3327A00D4B
:100C8000611D231F849F600D211D822F762F6A2FE7
:100C900011249F5750408AF0E1F088234AF0EE0F6C
:100CA000FF1FBB1F661F771F881F91505040A9F779
:100CB0009E3F510570F05CCFA6CF5F3FECF3983EAE
:100CC000DCF3869577956795B795F795E7959F5FE0
:100CD000C1F7FE2B880F911D9695879597F908957A
:100CE000AA1BBB1B51E107C0AA1FBB1FA617B70752
:100CF00010F0A61BB70B881F991F5A95A9F780956E
:100D00009095BC01CD010895A0E0B0E0EAE8F6E0DE
:100D10000C945509FE0135966191719180913F01C6
:100D200090914001AF010E94C7062096E2E00C942A
:100D300071090F931F93CF93DF938C01E0913F01D3
:100D4000F0914001838181FF1AC0C0E0D0E005C06E
:100D50000995009711F0CFEFDFEFF80181918F0136
:100D600060913F0170914001DB011896ED91FC917B
:100D70001997882369F78AE00995009711F0CFEF5A
:100D8000DFEFCE01DF91CF911F910F910895ADE07C
:100D9000B0E0EDECF6E00C9445093C017D876C87F2
:100DA0005A01FC0117821682838181FFC8C12E017E
:100DB0000894411C511CF3019381EC85FD8593FD42
:100DC000859193FF8191FD87EC87882309F4B3C156
:100DD000853241F493FD859193FF8191FD87EC87E6
:100DE000853229F490E0B3010E94BB08E4CFFF24D0
:100DF000EE2410E01032B0F48B3269F08C3228F41B
:100E0000803251F0833271F40BC08D3239F080336F
:100E100049F411602CC01260146029C0186027C00A
:100E2000106125C017FD2EC0282F20532A3098F4BA
:100E300016FF08C08F2D880FF82EFF0CFF0CF80E40
:100E4000F20E15C08E2D880FE82EEE0CEE0CE80E7B
:100E5000E20E10620CC08E3221F416FD6CC11064DB
:100E600006C08C3611F4106802C0883659F4EC853F
:100E7000FD8593FD859193FF8191FD87EC87882304
:100E800009F0B8CF982F9554933018F090529330C2
:100E900038F424E030E0A20EB31E3FE339830FC0E4
:100EA000833631F0833781F0833509F05AC022C090
:100EB000F5018081898322E030E0A20EB31E21E09B
:100EC000C22ED12C420114C092E0292E312C2A0CC2
:100ED0003B1CF5018080918016FF03C06F2D70E0F0
:100EE00002C06FEF7FEFC4010E94B0086C01510196
:100EF0001F7715C082E0282E312C2A0C3B1CF501EF
:100F00008080918016FF03C06F2D70E002C06FEFEC
:100F10007FEFC4010E94A5086C011068510113FD08
:100F20001CC006C080E290E0B3010E94BB08EA94B6
:100F30008E2D90E0C816D906A8F30FC0F40117FD56
:100F4000859117FF81914F0190E0B3010E94BB088A
:100F5000E110EA940894C108D108C114D10471F7D2
:100F6000E7C0843611F0893651F5F50117FF07C047
:100F700080819181A281B38124E030E008C080812A
:100F80009181AA2797FDA095BA2F22E030E0A20E0A
:100F9000B31E012F0F76B7FF08C0B095A0959095AE
:100FA00081959F4FAF4FBF4F0068BC01CD01A2019B
:100FB0002AE030E00E94E708D82ED4183FC08537D9
:100FC00021F41F7E2AE030E020C0197F8F36A9F07F
:100FD000803720F4883509F0AEC00BC0803721F08F
:100FE000883709F0A8C001C0106114FF09C014605F
:100FF00007C014FF08C0166006C028E030E005C036
:1010000020E130E002C020E132E0F50117FF07C027
:10101000608171818281938144E050E006C06081EB
:10102000718180E090E042E050E0A40EB51EA20184
:101030000E94E708D82ED418012F0F7706FF09C0A9
:101040000E7FDF1430F404FF06C002FD04C00F7EE3
:1010500002C01D2D01C01F2D802F90E004FF0CC089
:10106000FE01ED0DF11D2081203311F4097E09C030
:1010700002FF06C01E5F05C086789070009709F0D9
:101080001F5F802E992403FD12C000FF0DC0FD2CB0
:101090001E1550F4FE0CF11A1E2D06C080E290E0E1
:1010A000B3010E94BB081F5F1E15C0F304C01E15CC
:1010B00010F4E11A01C0EE2484FE0FC080E390E03A
:1010C000B3010E94BB0882FE1FC081FE03C088E5F9
:1010D00090E010C088E790E00DC0C4018678907061
:1010E000009791F081FC02C080E201C08BE207FD15
:1010F0008DE290E0B3010E94BB0806C080E390E05F
:10110000B3010E94BB08FA94DF14C0F3DA94F20131
:10111000ED0DF11D808190E0B3010E94BB08DD2040
:10112000A9F706C080E290E0B3010E94BB08EA94F0
:10113000EE20C1F740CEF3018681978102C08FEF88
:101140009FEF2D96E2E10C946109FC01059061503E
:1011500070400110D8F7809590958E0F9F1F0895CD
:10116000FC016150704001900110D8F78095909576
:101170008E0F9F1F08950F931F93CF93DF938C01C2
:10118000EB018B8181FF1BC082FF0DC02E813F814F
:101190008C819D812817390764F4E881F9810193D6
:1011A000F983E88306C0E885F985802F09950097C3
:1011B00031F48E819F8101969F838E8302C00FEF51
:1011C0001FEFC801DF91CF911F910F910895FA0190
:1011D000AA27283051F1203181F1E8946F936E7F76
:1011E0006E5F7F4F8F4F9F4FAF4FB1E03ED0B4E067
:1011F0003CD0670F781F891F9A1FA11D680F791FA8
:101200008A1F911DA11D6A0F711D811D911DA11DB8
:1012100020D009F468943F912AE0269F11243019C8
:10122000305D3193DEF6CF010895462F4770405D63
:101230004193B3E00FD0C9F7F6CF462F4F70405D12
:101240004A3318F0495D31FD4052419302D0A9F76D
:10125000EACFB4E0A6959795879577956795BA9567
:10126000C9F700976105710508959B01AC010A2E2D
:1012700006945795479537952795BA95C9F7620F04
:10128000731F841F951FA01D08952F923F924F92A8
:101290005F926F927F928F929F92AF92BF92CF9206
:1012A000DF92EF92FF920F931F93CF93DF93CDB70F
:1012B000DEB7CA1BDB0B0FB6F894DEBF0FBECDBF87
:1012C00009942A88398848885F846E847D848C8458
:1012D0009B84AA84B984C884DF80EE80FD800C8161
:1012E0001B81AA81B981CE0FD11D0FB6F894DEBF44
:0C12F0000FBECDBFED010895F894FFCFB4
:1012FC000001020000000200000000DD01000000FF
:10130C000044697374616E6365203D202569000A91
:10131C00004C69676874203D202569000A005465FB
:0A132C006D70203D202569000A00C5
:00000001FF
